:020000041000EA
:10000000002008205D0100101B0100101D010010E0
:100010001101001011010010110100101101001058
:100020001901001019010010190100101F01001022
:10003000110100101901001021010010230100100E
:100040001101001011010010110100101101001028
:100050001101001011010010110100101101001018
:100060001101001011010010110100101101001008
:1000700011010010110100101101001011010010F8
:1000800011010010110100101101001011010010E8
:1000900011010010110100101101001011010010D8
:1000A00011010010110100101101001011010010C8
:1000B00011010010110100101101001011010010B8
:1000C00011010010110100101101001011010010A8
:1000D0001101001011010010110100101101001098
:1000E0001101001011010010110100101101001088
:1000F0001101001011010010110100101101001078
:100100001101001011010010110100101101001067
:10011000EFF30580103800BE00BE00BE00BE00BE7A
:1001200000BE00BEF2EB88719C6D0510BC6D051021
:10013000A001001090A31AE7D3DEFFFF42012110B7
:10014000FF0100006C7E0500793512AB4FF0000016
:100150001E49086006C881F3088810474FF05040D8
:10016000006810B14FF00000F2E70DA40ECC00299A
:1001700002D000F012F8F9E71549164A002000E015
:1001800001C19142FCD11449884714498847144958
:10019000884700BEFDE701C901C29A42FBD3704700
:1001A000BC6D05102001002008130020A47F05105D
:1001B0000000082000000820A47F0510001008207F
:1001C00000100820000000007047000008ED00E06B
:1001D000081300209CB6022035380010A505001039
:1001E0002D380010F8B500BF064B0749C91A891011
:1001F00048BF0131491003D0044B0BB101481847E7
:10020000704700BF08130020081300200000000002
:1002100008B5054B1BB105490548AFF30080BDE8A3
:100220000840FFF7E1BF00BF00000000E4710020BC
:10023000BCCA01104FF0000480B53C4D3C4E3D4F10
:10024000DFF8088182B0102344EC4030112344ECE5
:1002500040300E2344EC40300F2344EC40304FF04C
:10026000FF3228680DF1070107F03CF99DF80730CF
:10027000032BE8D8DFE803F0493D28020221386863
:1002800007F0AEF90028DED0D8F800301B78002B3C
:1002900047D0294803F040FC4FF00E0A4FF001030D
:1002A00043EC40A04FF0100943EC4090308809F037
:1002B00037FA44EC40A044EC4090002338681A46DA
:1002C000194606F0A5FFBEE71C4803F025FC4FF0D9
:1002D0000F0A4FF0010343EC40A04FF0100943EC2C
:1002E0004090308809F01CFA44EC40A044EC409067
:1002F000A9E7134803F010FC4FF0110A4FF0010377
:1003000043EC40A04FF00E09E9E70E4803F004FC6F
:100310004FF00F0A4FF0010343EC40A04FF01109DA
:10032000DDE7094803F0F8FBC7E700BFD071002004
:1003300028120020942A0020D8CA0110C8CA01102F
:10034000C0CA0110D0CA0110E0CA0110902A0020D2
:100350002DE9F0470224ADF5067D17F019FA434A5E
:100360004349444817F0DAF941F690708DF8094096
:100370000AF0D4FA00220121ADF80A0020460392C7
:1003800016F038FC804602AF1022394616F032FAD9
:100390000521404616F0CCFADFF8F09015E0032571
:1003A00000234FF0FF32D9F800000DF103018DF862
:1003B000035006F02DFF002340F2533220462E4911
:1003C00016F0C8FB204616F05FFA1023394601AA42
:1003D0004046019316F026F900234FF4007206A957
:1003E000044616F0DBFA0028E5DD244906A81CF0D7
:1003F00043F905460028D2D1214906A81CF03CF952
:100400002049824658B12B464FF0FF32D9F8000000
:100410000DF103018DF8035006F0FAFECBE706A8B4
:100420001CF02AF91849054660B1022253468DF89E
:100430000320D9F800004FF0FF320DF1030106F060
:10044000E7FEB8E706A81CF017F90028B3D04FF074
:10045000010C2B464FF0FF32D9F800000DF10301DB
:100460008DF803C006F0D4FEA5E700BF04004000ED
:10047000F4CA011004CB011030CB011010CB0110D5
:1004800018CB011020CB011028CB0110D071002017
:100490002DE9F84F4FF00108DFF8B490DFF8B4A071
:1004A000274F03264FF0000B4FF05045002448EC37
:1004B00040400A20002101F0E5F944EC40406B681F
:1004C000990705D401F0D4F96B6804469A07F9D569
:1004D000686810F0020004D001F0CAF96B689B074D
:1004E000FAD4001BA7FB0023013E3C200BEB531B5F
:1004F00009F016F916F0FF06D8D10121114BD9F8F1
:100500000000A3FB0B3B2BFA01FB07F069F898B145
:100510000D4BDAF800401B68D9F800005B458CBF32
:1005200000250125334632463146257006F070FE1F
:10053000022009F0F5F8B4E7044803F0EDFAF7E714
:1005400009CB3D8DABAAAAAAAC2B002084CE01100A
:10055000942A0020902A002010B5002000F018F9FD
:10056000012000F015F90124002344EC443043EC51
:1005700044400E2000F00CF90E2344EC44300F20D0
:1005800000F006F90F2344EC4430102000F000F98D
:10059000102344EC4430112000F0FAF8112344EC0D
:1005A000443010BD10B582B003F072FA0121084644
:1005B00006F050F81E4B19241860012006F0B2FE18
:1005C000DFF890C01B4BCCF80000002201210A206C
:1005D0001C6006F0BBFD0324174B1860FFF7BCFF3F
:1005E000DFF874C00023CDE9004C4FF4807213494A
:1005F000134808F07BFE00244FF0010C2346CDE9A0
:1006000000C44FF400620F490F4808F06FFE4FF02E
:10061000020C4FF480722346CDE900C40B490C480C
:1006200008F064FE08F08CFE204602B010BD00BF4A
:10063000902A0020AC2B0020D0710020ACCE0110FD
:1006400091040010C0CE011051030010D4CE01104F
:1006500035020010942A0020242600204FF4807CCC
:100660000C4B00B553F8202003EB8003C00082F050
:10067000400200F1804003F5805E02F0C00200F508
:10068000203003F54053CEF800204160C3F800C08D
:1006900000BD00BF04800340DFF81CC0C90041EA70
:1006A00082015CF820200CEB8003514003F580535D
:1006B00001F00C011960704704800340064B0222D0
:1006C00003EB800319B103F500531A60704703F57B
:1006D00040531A60704700BF048003404FF05043FE
:1006E0001B6893B10C4B4FEAD00C00F00700800060
:1006F00081400A4803EB8C030CF18C0C40F82C1061
:100700002AB103F5005319607047054BEBE703F579
:1007100040531960704700BF908202400080024041
:100720004882024030B54FF050450F4C2B6885B0E1
:1007300054F823C01CEA000F09D140EA0C0044F829
:100740002300152005B0BDE8304000F0E7B9CDE941
:100750000212019001F06EFADDE902122B68019895
:1007600054F823C0E9E700BFDCB4002010B504460C
:10077000152000F0CDFA4FF05043044A196852F8A2
:10078000213023EA040342F8213010BDDCB40020FC
:100790004FF0000300B543EC440043EC40004FF041
:1007A000050E4FF4807C0C4BC20053F8201003EB75
:1007B000800081F0400102F1804303F5203301F015
:1007C000C00200F5805100F540500A60C3F804E013
:1007D000C0F800C000BD00BF048003400FB400B5E6
:1007E000084883B003F098F9049B3BB105A918466B
:1007F000019103F001F8044803F08EF9012003F0A1
:1008000013F800BFE8CE0110F8CE0110EFF310800E
:1008100072B6064BD3E8CF1F01220029FAD1C3E8F4
:10082000412F0029F6D1BFF35F8F7047F7160020E4
:100830000023034AC2E88F3F80F31088704700BF4F
:10084000F716002070B51646EFF3108472B6DFF885
:1008500048E0DEE8CF2F0123002AFAD1CEE8423F5C
:10086000002AF6D1BFF35F8F012301F0070CCA08FD
:1008700003FA0CF310F802C01CEA030508D14CEA95
:10088000030C00F802C0CEE88F5F84F3108870BDBF
:100890003046FFF7A3FF00BFF7160020F8B50F465C
:1008A0001946EFF3108672B61C4DD5E8CF4F0123E1
:1008B000002CFAD1C5E8443F002CF6D1BFF35F8F7E
:1008C0008A421BD8012402E00132914222D3D3088C
:1008D00010F803E002F0070C04FA0CFC1EEA0C0FFF
:1008E000F2D14EEA0C0E00F803E010460023C5E8F2
:1008F0008F3F86F31088984207DBF8BD0023C5E8D8
:100900008F3F86F310884FF0FF30002FF5D0069808
:10091000FFF764FF4FF0FF30E8E700BFF716002055
:1009200000B5EFF3108E72B6104BD3E8CFCF012293
:10093000BCF1000FF9D1C3E84C2FBCF1000FF4D18A
:10094000BFF35F8F01224FEAD10C01F0070102FAD9
:1009500001F110F80C2022EA010200F80C2000221C
:10096000C3E88F2F8EF3108800BD00BFF71600205C
:10097000044A1078431CDBB2182B28BF10231370D5
:10098000704700BF2A1200200146024A0248FFF7C2
:1009900059BF00BFFCCE01101C1C002000B5DFF8C1
:1009A0001CC083B001461F231822CDF800C00248A6
:1009B000FFF774FF03B000BD1C1C00201CCF01100A
:1009C0004FF0E022936843F000539360704700BFFC
:1009D0000021044B03F12002C3E88F1F013393422F
:1009E000FAD17047EC1600204FF0E0234FF0803230
:1009F000C3F80024C3F80424C3F80824C3F80C2463
:100A0000C3F81024C3F81424C3F81824C3F81C2412
:100A1000C3F82024C3F82424C3F82824C3F82C24C2
:100A2000C3F8302462B67047012300F01F029340E0
:100A3000400941B1800000F1604000F56140C0F81C
:100A4000803103607047024A203042F820307047FE
:100A500000E100E00123064A410952F8212000F09C
:100A60001F008340134214BF01200020704700BFC5
:100A700000E100E001224309034900F01F00824029
:100A8000403341F82320704700E100E0054A103070
:100A90009268054B52F82000C01A2F288CBF002006
:100AA0000120704700ED00E02C12002010B582B04C
:100AB000EFF3108472B6164BD3E8CFCF0122BCF10E
:100AC000000FF9D1C3E84C2FBCF1000FF4D1BFF3F4
:100AD0005F8F104A10309268DFF83CC052F8202037
:100AE000624508D0914206D0CDE9000101F0A2F89C
:100AF0000199074B0098074A926842F82010BFF30B
:100B00005F8F0022C3E88F2F84F3108802B010BDDE
:100B1000F516002000ED00E0110100102DE9F04F66
:100B200006468A46154683B0EFF3108872B6714FB9
:100B3000D7E8CF2F0123002AFAD1C7E8423F002A85
:100B4000F6D1BFF35F8F6C4991F90020002A7BDB5F
:100B50006A4802EB420400EB840393F806C01036A7
:100B600081F800C06649A40089684FEA420B51F839
:100B700026E0AEEB00012F292ED962498E4540F0C8
:100B8000848043F0010E604B02340444043B1B1B81
:100B9000C3F34A036FEAC3434FF421416FEAD343DF
:100BA0005A4420F8221000EB820253804BF6015386
:100BB0009380FF23D571C2F808A09371504B9B68B6
:100BC00043F826E0BFF35F8F0023C7E88F3F88F329
:100BD000108803B0BDE8F08F2EF0010C9CF80710D0
:100BE000A9425AD9B14601941E4603E0CB79AB42E3
:100BF00030D98C469CF9064004EB4401002C00EBF4
:100C00008101F3DA00944BF6015433464E460CF161
:100C10000409043BA3EB0903C3F34A036FEAC3438C
:100C20006FEAD343ACF80430384B0BEB02018CF87D
:100C3000062040F82130009B00EB810294809371E4
:100C4000D571C2F808A0B9E700F0F4FF2A4991F97C
:100C500000207DE76FF007010094019C33460C1BD8
:100C60006146241A019431F8044F4E4644F30A04B5
:100C7000023401EB4404894601990C44C4F34A044C
:100C80006FEAC4446FEAD444C3E7CDE9002300F01F
:100C9000D1FFDDE90023194873E71B4AA11CDD7170
:100CA0000144043A251D521A0544ACF10401491BC4
:100CB000C1F34A016FEAC141C2F34A026FEAC2427C
:100CC0006FEAD1414FF4214E6FEAD24299800F4929
:100CD00020F804E05A804AF6AA256246121A5241C8
:100CE00055432D0DC3F808A09D7143F0010ECCF8BB
:100CF000001063E7F51600208EB602202C120020AB
:100D000000ED00E0110100105C1200200148804756
:100D10002DE9F04F034685B0EFF3108772B6764C9D
:100D2000D4E8CF0F01220028FAD1C4E8402F0028D0
:100D3000F6D1BFF35F8F714A03F110069268DFF8B6
:100D4000D48152F8260040454BD0884257D06C4D94
:100D5000A0EB050CBCF12F0F43D84FF0010E4FEA6A
:100D6000531C4FEA8C0C0CF1604202F56142D2F840
:100D700000C003F01F030EFA03F300920193C2F8C0
:100D8000803003EA0C09BFF35F8FEFF30583DBB21A
:100D90009A46002B35D09E4205D0CDE9020100F0E5
:100DA00049FFDDE9020120F0010EDEF808C06145CF
:100DB00005D18CE0D3F808C0614532D09E469EF93B
:100DC000062002EB4203002A05EB8303F2DA6145B9
:100DD00060D0DDE90032B9F1000F1FD0C3F88021E7
:100DE0001A60464B9B6843F82600BFF35F8F0023D1
:100DF000C4E88F3F87F3108805B0BDE8F08F404608
:100E0000EFE720F0010EDEF808C06145D7D19EF96A
:100E100006B09B45734609DA404646E0C3F8802099
:100E2000DFE793F906B0BBF1000F34DB0BEB4B0CA3
:100E300005EB8C0292F807E04FEA8C010291916871
:100E400083F807E092F906C09960BCF1000F83F8BF
:100E500006C04FEA4B0E38DB6FF0070C9288029900
:100E600042F30A0201EB420208322A44ACEB030CC3
:100E70006244C2F34A026FEAC2426FEAD2429A80E7
:100E8000204BDE441A7805EB8E0E83F800B08EF806
:100E900006209EE77346BAF1000F1ED1FF228EF89E
:100EA00006204BF60152AEF80420DFF858C04AF68F
:100EB000AA229CF800E01946491B49414A43120DF9
:100EC00083F806E08CF8002083E70F4AD7E79EF905
:100ED00006B07346BBF1000FA8DA0C4A0C4DD21ACB
:100EE000083AC2F30A316FEA01516FEA115145EA3B
:100EF0005202DA8099806CE7F516002000ED00E0E0
:100F00002C1200208EB6022001BDFFFF66120020C9
:100F100000F8FFFF110100104FF0FF0C20F0030359
:100F200003F1604303F5644300F003001A68C00056
:100F30000CFA00FC22EA0C0281400A431A60704756
:100F40002DE9F041EFF30583DBB29E46EFF3108508
:100F500072B62949D1E8CF2F0123002AFAD1C1E87E
:100F6000423F002AF6D1BFF35F8FDFF89C8040F04C
:100F70000106D8F808704AF6AA2357F82E700446DE
:100F80001E4AA41A644163431B0DB7425BB21ED0D4
:100F900092F906409C4220D092F912409C4227D000
:100FA00092F91E409C4225D092F92A409C4208BFEB
:100FB000032413D0124A002492F800C0137080F862
:100FC00006C0C1E88F4F85F31088BDE8F081D8F8DE
:100FD00008200C4C42F82E40ECE7002404EB4404BB
:100FE00002EB8402FF2494714BF601549480E1E7F4
:100FF0000124F3E70224F1E7F51600202C1200206B
:101000008EB602201101001000ED00E000B5DFF8FF
:1010100024C083B0014605230022CDF800C0044857
:10102000FFF73CFC0028A8BFC0F1330003B000BDAF
:101030009AB6022038CF0110014B0B440360704771
:10104000EC160020F8B5124C124DAC4211D24FF004
:10105000FF36002723686BB1FFF78AFC0146204664
:10106000FFF7EAFF66602772BFF35F8F0C34AC4274
:10107000F0D3F8BDFFF77CFC01462046FFF7DCFF0C
:101080006660BFF35F8F0834AC42E3D3F8BD00BFA6
:10109000F81200200813002010B50446FFF768FC82
:1010A00001462046FFF7C8FF4FF0FF336360BFF3F0
:1010B0005F8F10BD10B504460120FFF76FFC034B96
:1010C00003442360BFF35F8F10BD00BFEC16002008
:1010D000024B0B440360BFF35F8F7047EC16002098
:1010E0002DE9F04F2DED028B85B0EFF30583DBB2D8
:1010F000103B9A0818BF01224FF0010103F0030BC7
:1011000018BFA94CA94B08BFA94C0BEB820253F89E
:10111000225001FA0BF204F541539FEDA18B02928C
:101120005A602FE0AB88190440F19480AB79002B12
:1011300040F0DE80B5F90860002EC0F21C816B69BA
:1011400006EB460603EBC603D3E90267B7F1FF3FA0
:1011500008BFB6F1FF3F0ED004EB8B01A36A0A690A
:10116000D21AF31A934205D30123226A03FA0BF32E
:10117000134200D10E61204600F072FBB042B9412B
:10118000C0F2F980B5F90860029B002EE363C9DB69
:10119000D5F8149006EB460A09EBCA07BB6820464F
:1011A000D7F80C80019300F05BFB019B984271EB38
:1011B0000801B7DBB8F1000FC0F2C080D7E90431F5
:1011C0007C4A934200F0F8807A88B5F9080092B220
:1011D00042EA0040984702460B4652EA030100F0FB
:1011E000AD80002B80F2CD800199B1EB020E68EB4F
:1011F000030839F93A30C7E902E8002B92DB686945
:1012000003EB430200EBC202D2E90271BE4578EB68
:10121000010C4FEA430285DBAC462CF8083F06E0A0
:1012200003EB430100EBC1015A00D1E90271BE4555
:1012300078EB01011A4405DB30F9323000EBC20CC7
:10124000002BEDDA29F83A30ACF80060AB881904CD
:101250003FF56CAF2B69EFF3108272B6D3E8CF0F76
:1012600001210028FAD1C3E8401F0028F6D1BFF3BE
:101270005F8F4FF6FF76A8880023296900B2AE8001
:10128000C1E88F3F82F310889842FFF64FAF0746C0
:10129000A1466E6905F10808B5F9083007EB470E5D
:1012A000002BC44606EBCE0215DBD2E90240AA466B
:1012B000019704E036F935309446002B09DB03EB47
:1012C000430506EBC502D2E90271BC4270EB010195
:1012D000F0DA5546019FACF8007036F93E7026F8FA
:1012E0003E30002FD8DAAB794C46002B3FF422AFCA
:1012F0000023AB71B5F90860721C33463BD06869B6
:1013000005F1080E03E08E465A1C3FF415AF03EBBF
:10131000430200EBC2014F889C463F0430F9323053
:10132000F1D5664581ED028BEED0AEF8003029890B
:10133000664620F83210A5F808C0E5E739F83A30DB
:101340002B812B69EFF3108272B6D3E8CF0F012106
:101350000028FAD1C3E8401F0028F6D1BFF35F8F01
:101360006B88296929F83A3000236E80C1E88F3FE5
:1013700082F31088D6E640BF05B0BDEC028BBDE815
:10138000F08F20460393019200F06AFA019A039BC2
:1013900010EB020E43EB01082BE700BFAFF3008018
:1013A000FFFFFFFFFFFFFFFF00800B4004720020E4
:1013B00000000B40E110001008460B6903919847AC
:1013C0000028BBD00399D1E9002306E70B4808B5F4
:1013D0000368EFF3108172B6D3E8CFCF0122BCF1DE
:1013E000000FF9D1C3E84C2FBCF1000FF4D1BFF3CB
:1013F0005F8F05F0C9FA0020002108BD00B500206C
:1014000038B5384B1C692CB1BDE838400A21364844
:10141000FFF712BE0321354800F010FA334D314B6F
:10142000DD60FFF7A5FA324A4FF0504E0244032028
:101430002C4B4FF00F0C18701A61DEF800204FF69D
:10144000FF715A705A69A3F802C014834FF0020466
:10145000A2F848404FF00404A2F878404FF0050489
:10146000A2F890404FF00604A2F8A8404FF00704FD
:10147000A2F8C0404FF00904A2F8F0404FF00A046F
:10148000A2F808414FF00B04A2F820414FF00C04E1
:10149000A2F838414FF0010414864FF00804A2F876
:1014A000D840144C4FF00D0E4FF00E0C9C600824E9
:1014B0009980A2F850E1A2F868C1A2F860001180FA
:1014C0000D4A2C620D49D360FFF7F0FA0121032089
:1014D000FFF7AAFA0A4B0A211C640348BDE838400A
:1014E000FFF7AABD7412002000B5002000000B40D9
:1014F000EC160020FFFF100004720020E110001025
:1015000000200B400048704774120020F0B583B0F3
:101510009DF828401D46034654B9CDE9000200F06D
:10152000A7F9019A009B824265EB0101A1425BDBB6
:101530001969EFF3108072B6D1E8CF6F0124002E45
:10154000FAD1C1E8464F002EF6D1BFF35F8FB3F951
:1015500002401F69002C3EDBD3F814C004EB440E9C
:101560003CF83E10002659800CEBCE01C7E88F6F87
:1015700080F310884888C1E902250130C0F30E00CD
:10158000012838BF0120089A48800A61099A40EA78
:1015900004404A611A69EFF3108172B6D2E8CF7F36
:1015A0000125002FFAD1C2E8475F002FF6D1BFF323
:1015B0005F8F9A882CF83E201A699C80C2E88F6F52
:1015C00081F3108801211C78DA68A14002F50153EB
:1015D000596003B0F0BD0023C7E88F3F80F3108847
:1015E0004FF0FF3003B0F0BD204603B0F0BD00BFA8
:1015F000F0B516461F4602690346EFF3108072B637
:10160000D2E8CF4F0121002CFAD1C2E8441F002CB0
:10161000F6D1BFF35F8FB3F902101D69002945DBD6
:10162000D3F814E001EB41023EF832400EEBC20C5D
:101630005C800024C5E88F4F80F3108805983546FC
:10164000CCF8100006983E46CCF81400BCF8020016
:10165000CCE902560130C0F30E00012838BF01204A
:10166000ACF8020040EA0140D3F810C0EFF3108557
:1016700072B6DCE8CF7F0126002FFAD1CCE8476FA5
:10168000002FF6D1BFF35F8FB3F804C02EF832C03D
:1016900099801A69C2E88F4F85F3108801211C7860
:1016A000DA68A14002F501535960F0BD0023C5E896
:1016B0008F3F80F310884FF0FF30F0BD0346408924
:1016C000B0EB214F3ADD58690A1402EB420210B523
:1016D000D3F810C000EBC200EFF3108E72B6DCE856
:1016E000CF4F0122002CFAD1CCE8442F002CF6D1A8
:1016F000BFF35F8F428889B292B28A4207D000223C
:101700001B69C3E88F2F8EF31088002010BD6FEA8D
:1017100042426FEA524242800121002218699971C7
:10172000C0E88F2F8EF3108893F800C0DA6808465F
:1017300002F5015301FA0CF1596010BD0020704709
:1017400040787047EFF30582D2B282B1384B5A6AC3
:101750008A4202D200221046704714BF01220022A2
:101760009B6A834228BF42F001021046704770B561
:1017700084B003922F4A0646D368157818460C4663
:10178000029300F06DF8029B05F1040C53F82CC095
:10179000039AACEB000C301A64EB0101604571F167
:1017A00000010FDB20BF224B596AA14207D314BFAF
:1017B000012200229B6AB34228BF42F00102104678
:1017C00004B070BD029200F053F8864264EB010150
:1017D0000029029A1BDB18492346CDE9001215485F
:1017E0003246FFF705FF011E11DD114B5A6AA24276
:1017F0001CD39B6AB34217D30E48FFF75FFF0C4B15
:101800005A6AA242D3D20022104604B070BD084BDF
:101810005A6AA242F7D3121B18BF01229B6AB34235
:1018200028BF42F00102CAE7A242E5D120BFE3E7A8
:1018300000000B4074120020CD13001010B4054BB3
:10184000054C064AA04214BF1846581C10BCFEF7AF
:10185000F9BF00BF201C002000800B4054CF0110B6
:101860000346416A0A46986A596A8A42FAD1704721
:10187000034B596A0A46986A596A9142FAD17047ED
:1018800000000B4000B58E46154A536A9C46916A8B
:10189000536A6345FAD1401853EB0E034FF0000230
:1018A00028BF0122BAB10E4B5A6A531C08BF10461A
:1018B00008D04FF0FF33184609494A6A9A42FCD3D0
:1018C0009A4207D1064B02E0596A914202D1996AC5
:1018D0008142F9D300BD024A526A9342ECD8EFE745
:1018E00000000B4000EB400C4FEA8C0C0CF1804CDC
:1018F0000CF5803C70B51E46DCF80430041FB3F5CF
:10190000803F38BF4FF48033E4B238BFCCF80430A6
:10191000012C2ED94FF40065284B0CF5405ECEF813
:10192000005053F820E0BEF1000F17D1DCF800E0C2
:10193000012C8EEA421202F0E0020CF5805ECEF835
:1019400000202BD94FF4006143F820604FF480331E
:101950000CF500521160CCF8043070BD5D69B5FB28
:10196000FEFE0EF1010E0EEB4E0EBEF1030EFCD28A
:10197000DCE70129CED103240CF540531C60DCF8D0
:101980000830DB07FBD5DCF800300CF5805E83EA1D
:10199000421303F0E003CEF80030084B0122DCF8DC
:1019A00000404C4004F00304CEF8004002FA01F17C
:1019B000DCF808200A42FBD0C4E700BF281C002046
:1019C000014B53F820007047281C002010B5029CE2
:1019D0008E464FEA043C4CEA034C1C4BB3FBF1F33C
:1019E0000168B2FBF3F4002920DB194A194B90423D
:1019F00014BF4FF480424FF4004217491A6003F5B8
:101A000080531A608B6832EA0303FBD1212200F570
:101A100040530433C0F800E084601A600268002A72
:101A2000FCDA0822C0F80CC01A6010BD036803F08D
:101A30003F037345D9D18368C3F30B03A342D4D1C9
:101A4000C36803F4EE236345CFD110BD001BB7007C
:101A50000080054000200240000002404FF0804C12
:101A6000214B00B5C3F800C0002839D0DFF888C08A
:101A7000A3F54053C3F81CC0DFF880C040F001005C
:101A800080EA0C0CC3F820C0596298624FF0804E77
:101A90004FF0E061144B1548DFF864C0C3F800E074
:101AA000C0F808C019602AB94FF00042A3F580536E
:101AB0001A6000BD4FF47A7303FB02F2B2F1807F2B
:101AC0002ABF6FF07F4313461A464FF08041DFF87C
:101AD00034C00748CCF80030064B4260196000BDA6
:101AE000034BD861D2E700BF00B00D4000A0014019
:101AF00000800D4000A00D40D3C007B02D3FF84F2F
:101B0000F3FFFF01A02A0020012300EB400080002A
:101B100000F1804000F5841041600360704700BF11
:101B200010B5002482B00B46E48A002141E800F1A0
:101B3000CDE900034B0254BF1021042144F252208E
:101B4000A047DDE9002386460A214FF48170F44660
:101B500002B0BDE8104060470023DB8A002242E863
:101B600000F2520201D4102118470421184700BF87
:101B700008B503460846191E02DB1AB140F03000D2
:101B8000FFF7CEFF40F02000FAE700BF002310B5BA
:101B9000DA8A044686B0002343E800F35B0254BFB0
:101BA0001021042145F247309047102203460521B9
:101BB00001A89847052802D0002006B010BD0DF1FD
:101BC000080CBCE80F00206001206160A260E360A7
:101BD00006B010BD034AD2F82838002BFBD0BFF363
:101BE0005F8F704700000E400021044B044ABFF392
:101BF0005F8F43F8041B9342F9D170470C080E40E5
:101C00002C080E404FF42A6C4FF48D70054A064B99
:101C10000649C2F800C0D06019605368002BFCDA96
:101C2000704700BF0080044000A0044000B0FA00EC
:101C3000704700BF08B50148FEF7D0FD78CF01100E
:101C400038B5054C054DAC4204D254F8043B9847D6
:101C5000AC42FAD338BD00BF70CA0110B0CA01103F
:101C600038B5054C054DAC4204D254F8043B9847B6
:101C7000AC42FAD338BD00BF9CCA0110B0CA0110F3
:101C80000648DFF828C0064B064A0749C0F800C0DE
:101C90001A608B6832EA0303FBD1704700200240D0
:101CA00000300240F6FFF303000002407F3BEFEFFD
:101CB000044BDB6CB3F5004F03D14FF48022024B91
:101CC000DA64704700001150002011504FF0E022FC
:101CD000044BD2F8881D0B43C2F8883D10EE300447
:101CE000704700BF030330006FF06041044B054AAA
:101CF00019609368DB4333F06043FAD1704700BF4B
:101D0000003002400000024010B545F25320FFF7BA
:101D100023FFBDE8104003460420184710B545F2E4
:101D20005320FFF719FFBDE8104003460120184774
:101D3000FEF74EBE1449154B70B55C1AA610442E22
:101D4000324628BF4422124D920028461AF046FD22
:101D5000B4F5867F13D80F4A14D0C6F144002B196E
:101D6000410803EBC101C3E9002208339942FAD1CB
:101D7000C30704D520F00100304445F82020064B6D
:101D80009D6070BD4320F8E70000001010010010B6
:101D9000000000201101001000ED00E0002370B5EC
:101DA0002B4C82B0C4F88430FFF72CFF0122294B62
:101DB000DA63636C012BFCD10321264A244B1163A7
:101DC0009C6B012CFCD10226052521460523224AC5
:101DD00022480096FFF7FAFD21462B46204A21486B
:101DE0000095FFF7F3FD0022042031461E4BFFF75C
:101DF00079FD2146284600221C4BFFF773FD002287
:101E0000082011461A4BFFF76DFD002209201146EC
:101E1000174BFFF767FD002206201146134BFFF713
:101E200061FD0022114B07201146FFF75BFD0420E6
:101E3000FFF7C6FD00240F4BA3FB0035AD0CE0B24D
:101E400029460134FFF760FE062CF8D102B070BDC0
:101E50000000014000300140002F6859000005409B
:101E6000008C864700800540001BB70080D1F00839
:101E7000006CDC0283DE1B4386B003B451FC080413
:101E8000CDE9020151FC0904CDE9040151EC0A0439
:101E9000CDE9060103BCF047BDE800504EEC00C49C
:101EA000BDE800504EEC01C4BDE800504EEC02C449
:101EB00000BD000000B5FFF7DFFF02E010FE30F4C8
:101EC000F8D441EC100443EC112400EE010410EEB0
:101ED000010480EE200451EC1004704700B5FFF7B8
:101EE000CBFF02E010FE30F4F8D441EC100443ECD8
:101EF000112400EE010410EE210480EE200451ECC8
:101F00003004704700B5FFF7B7FF02E010FE30F471
:101F1000F8D410B541EC100443EC112451EC040446
:101F200053EC0524A0FB024C5FF0000EE0FB03CE57
:101F3000E1FB02CE4CEC20440024E1FB03E444EC42
:101F400030E480EE200451EC5004BDE810407047AE
:101F500000B5FFF791FF02E010FE30F4F8D441EC39
:101F6000100443EC112451EC2104A0FB01126FEA90
:101F7000820252FB100052FB12F252FB1000A0EB47
:101F8000D07C53EC04245CFB13F153EC1524A1FB2F
:101F9000022001FB030053EC4424A2EB000050FBA1
:101FA0001CF24FEA111312EB017043EBE27140EAAD
:101FB000515020EA915020F0070053EC7524A0FB0B
:101FC000023C53EC752400FB03CC01FB02CC53EC28
:101FD0000424ACEB824C40EA5C70A0F1010041ECBF
:101FE000400480EE200451EC7004704700B5FFF708
:101FF00043FF02E010FE30F4F8D440EC700400EE31
:10200000010410EE210480EE200451EC30047047EE
:1020100000B5FFF731FF02E010FE30F4F8D440ECD9
:10202000600400EE010410EE210480EE200451EC67
:102030003004704700B5FFF71FFF02E010FE30F4D8
:10204000F8D441EC800400EE010410EE010480EEAF
:10205000400410EE1304704700B5FFF70DFF02E0D7
:1020600010FE30F4F8D441EC800400EE010410EED0
:10207000010480EE400410EE3304704700B5FFF712
:10208000FBFE02E010FE30F4F8D441EC100443EC07
:10209000112400EE010410EE3004C0F3007070470C
:1020A00000B5FFF7E9FE02E010FE30F4F8D443EC8F
:1020B000102441EC110400EE010410EE30F48CBF4A
:1020C00001200020704700BF00B5FFF7D5FE02E0F9
:1020D00010FE30F4F8D443EC102441EC110400EE6F
:1020E000010410EE30F42CBF01200020704700BF27
:1020F00000B5FFF7C1FE02E010FE30F4F8D441EC69
:10210000100443EC112400EE010410EE30F42CBF57
:1021100001200020704700BF00B5FFF7ADFE02E0D0
:1021200010FE30F4F8D441EC100443EC112400EE1E
:10213000010410EE30F48CBF01200020704700BF76
:10214000704700BF2DE9F04F83B00F461146DDE91F
:102150000EB292079846DDE90C93064629D00D464B
:102160009BB109EB030405EB040A01950D460D93A1
:10217000AAEB040214F8010D43463946B047A145C5
:10218000F6D129460D9B019D1D440F9B9B070CD545
:102190006C1AA34509D92A46434639462020013402
:1021A000B0475C4505F10105F5D3284603B0BDE80D
:1021B000F08F5B4515D28A461C468946ABEB03057A
:1021C0000D4452464346394620200AF1010AB047E1
:1021D000AA45F6D149462346DDF83090002CC0D1FF
:1021E000E3E70D46002BBCD1DFE700BF2DE9F04F40
:1021F0000F460F9906469DF82C008D079046DDE9A5
:102200000CA299468346099CDDF828C00E9B49D450
:10221000002B42D1944545D201F0010504F1FF3E67
:102220003020E64405E00CF1010C62450EF8010F88
:1022300002D9BCF1200FF6D1002D00F08780634554
:1022400030D9601E4FF0300E604405E00CF1010CF7
:102250009C4500F801EF25D0BCF1200FF6D1CD064A
:102260000ED5480551D4624564D0634562D0BAF1B9
:10227000100F4DD0BAF1020F55D0BCF1200F2DD167
:102280002022CDE90B310A924B4642463946304670
:102290000994BDE8F04FFFF755BF11F001052ED1AD
:1022A0009445BBD3CD061ED54805E0D4BCF1000F44
:1022B000D9D1BAF1100F5FD0BAF1020F74D0302229
:1022C0004FF0010C2270BBF1000F12D1480742D52C
:1022D0002B2204F80C200CF10102D2E762460CF12B
:1022E000010C3020A054BCF1200FC9D0BBF1000F6D
:1022F000ECD02D2204F80C200CF10102C1E798B3B8
:10230000944503F1FF3389D399E7BAF1100FB7D1A0
:102310008D063DD5BCF1200FB2D0582204F80C2018
:102320000CF1010CA9E7BCF1200FA9D062460CF119
:10233000010C08E0BCF10102BBD0BAF1100F35D09E
:10234000BAF1020FCDD16220A05496E7CD06CAD5CE
:10235000480588D58BE70A0749BF2022624604F862
:102360000C200CF101028CE711F00C0F00D0013BA6
:102370009445FFF453AF62E78A0613D478222270A3
:1023800030224FF0020C6270BBF1000F9ED0B0E71C
:10239000BCF1200F3FF474AF782204F80C200CF14C
:1023A000010C6AE75822EAE76222E8E78D06ACF101
:1023B000020004D54FF0580E04F800E091E74FF00A
:1023C000780E04F800E08CE700B9704701F062BBBA
:1023D00010B1D1E900311847704700BF000000007C
:1023E0002DE9F04F97B09DED207BDDE9225B804623
:1023F000894651EC170B9A46249B0C920793024690
:102400000B468DED047BFFF73DFE002840F0E38195
:10241000DDE904014FF0FF326FF48013FFF744FE53
:10242000002840F0CB80DDE904014FF0FF32B24BD1
:10243000FFF776FE002840F09F80DDE90467AAA33D
:10244000D3E9002330463946FFF76AFE002840F002
:102450008280A7A3D3E9002330463946FFF724FE44
:10246000002878D13046394600220023FFF71CFEB1
:10247000002840F098800D90079B302113F4806F66
:1024800008BF06250EAA2B46A5F1200605E0013B54
:10249000B34202F8011B00F06581092BF7D81E46F4
:1024A000ED1ADDE90401FFF7C9FD944B044603EB87
:1024B000C60393ED007B8DED087BFFF79BFD024685
:1024C0000B46DDE90401FFF70DFDDDE90823FFF709
:1024D0001DFDCDE90A01FFF7C3FD0746FFF79CFD8F
:1024E00002460B46DDE90A01FFF7FCFC0022844BA3
:1024F000CDE90A01FFF714FE002800F088800137BB
:102500003846FFF789FD02460B46DDE90801FFF773
:10251000DFFD08B100270134002E00F088800DF1A6
:102520003703DFF8F0C158190DE0ACFB0721C908EB
:1025300001EB8102A7EB42023032092F00F8012F94
:1025400040F2FB800F46202D06F1FF3605F1010514
:10255000EBD1202586E0079B9DED047BCDE923B3DD
:102560004946534640460C9A8DED207B229517B084
:10257000BDE8F04F00F080B9079B494658074CBFB3
:1025800004230323404621935346079A48BF5D4CDA
:10259000CDE922B258BF5C4C0C9A209417B0BDE82C
:1025A000F04FFFF7CFBD3B46324600200021FFF73A
:1025B00099FC0123CDE904010D935DE7079B03F02E
:1025C00002029C07049200F0F4800C9F3D464F4E9F
:1025D000341D14F8010D2A4653464946C047A64209
:1025E00005F10105F5D1049B3C1D63B10C9D631BF6
:1025F0009B4508D922465346494620200134C0470E
:10260000631B9B45F6D8204617B0BDE8F08F00222B
:10261000DDE90A013A4BFFF747FD00287FF47CAF64
:10262000002F40F0C2800137002E7FF478AF2046A3
:10263000FFF7E0FC02460B46DDE90401FFF752FC20
:1026400000222F4B06460F46FFF72EFD40B93046BD
:10265000394600222A4BFFF763FD002800F0A180D5
:102660000DF137032A4859190EE080FB0476C2EBBE
:10267000A60202EB8206A4EB46063036144601356C
:1026800001F8016F002A47D0202D4FEAE472ECD107
:10269000079A02F00302012A14D1BBF1000F11D0F6
:1026A0000D9A002A60D00BF1FF3BBBF1200F09D936
:1026B00030222B4404E001355D4503F8012F31D26F
:1026C000202DF8D1079B0EACCDE902B30094534600
:1026D000494640460C9A0195FFF734FD04462046D2
:1026E00017B0BDE8F08F00BF0000000065CDCD4100
:1026F0000000000065CDCDC1FFFFEF7FB8F40110F1
:102700000000E03FC4CF0110CCCF0110D4CF0110A6
:1027100067666666CDCCCCCC079A02F00302012A2C
:1027200000F09680202DCDD00D9B3BB32D220DEBDC
:10273000050383F838200135C4E7202D3FF409AFA5
:1027400030212E445A1905E00135202D02F8011FD1
:102750003FF4FFAEAE42F7D12E226E44013586F82B
:1027600038207FE720259CE6079A12F00C0F5AD0FC
:102770000BF1FF3BAB459BD8202DA3D0079B5A07FD
:1027800006D52B220DEB050383F83820013599E798
:102790001B0797D520220DEB050383F83820013560
:1027A00090E7013424F001045AE7F9077FF5B4AE4D
:1027B00039E7BBF1040F7FF608AF0C9B1D46043BC5
:1027C00003EB0B072A465346494620200135C047F4
:1027D000AF42F7D1FAE6079B03F002029D0704928D
:1027E00025D00C9F3D46224EF41C14F8010D2A46BC
:1027F00053464946C047A64205F10105F5D1049B61
:10280000FC1C002B3FF4FFAE0C9D631B9B457FF629
:10281000FAAE22465346494620200134C047631B86
:102820009B45F6D8EFE6AB453FF642AF4AE7BBF132
:10283000030FD6D90C9B1D46033B03EB0B072A461F
:102840005346494620200135C047BD42F7D1C9E76C
:10285000BBF1000F3FF466AF0D9A002A84D00BF154
:10286000FF3B5D45FFF424AF202D7FF45FAF29E7E8
:10287000D0CF0110000000002DE9F04F9FB01E46A0
:10288000DDE928ABDDE92B982A9B04460D460B9227
:102890000A9352465B4650465946FFF7F3FB002821
:1028A00040F0C680504659464FF0FF327B4BFFF751
:1028B00037FC002840F0BC80504659464FF0FF32AC
:1028C0006FF48013FFF7F0FB002840F0B180504612
:1028D000594600220023FFF7E7FB002840F0DD8186
:1028E000CDE908ABDDE9081218F480600B460F460D
:1028F00008F400610C921491159040F0A8801343E5
:1029000040F0D080002940F0EC8106230A9318F0B3
:102910000202109240F0DD814B46042B38BF0423A5
:102920000E920422043B1292149350465946002200
:102930000023FFF7B9FB002840F02A829DED087BB9
:10294000149B0B9A03930A9B8DED007B029328F452
:1029500000630493294633462046FFF741FD0246B3
:1029600018F0200F334629460CBF6520452002F1A0
:102970000108A047129B0DF1580A03F1FF3B0E9B83
:10298000002283EAE37C5046DFF814E10B9FACEBB6
:10299000E37CD90FCDF8208002E0202AC44610D075
:1029A000AEFB0C384FEAD80808EB8803ACEB4303C6
:1029B00001303033BCF1090F02F1010200F8013C93
:1029C000EBD805234FF0000C06930A23DDF8208096
:1029D000CDE90121CDE9033CCDF800A033464246C4
:1029E00029462046CDF814B0FFF700FC109B824624
:1029F000D3B1A0EB0708C14516D907EB080233464F
:102A00002946202008F10108A047C145F5D87B1EC2
:102A10004B44C7F10102A3EB0A035244914538BF6E
:102A200000230AF1010A9A4450461FB0BDE8F08F16
:102A3000334629462046CDE928AB0A9CCDE92B98A0
:102A40000B9A2A941FB0BDE8F04FFFF7C9BC57EAB4
:102A5000020329D100293FF45AAF00230E930A9BA9
:102A60000E9A934200F3BA8100275046594600223D
:102A70000023FFF719FB002840F015819DED087B2E
:102A800028F4006343F480632C938DED287B334658
:102A900029462046CDE92A790B9AD3E7FFFFEF7F3D
:102AA000CDCCCCCC06230A930C9BC3F30A50A0F2E6
:102AB000FF30FFF79FFAB2A3D3E90023FFF726FA0E
:102AC000B1A3D3E90023FFF7F9F90C9BCDE90E017F
:102AD000C3F3130343F07F5138460022A24B41F465
:102AE0004011FFF7FFF994A3D3E90023FFF70EFA93
:102AF00002460B46DDE90E01FFF7E0F9FFF79EFA0B
:102B00000E90FFF777FA8EA3D3E90023CDE90C01ED
:102B1000FFF7FCF90022954BFFF7D0F9FFF78EFA8B
:102B200089A3D3E900230746DDE90C01FFF7EEF99D
:102B3000CDE90C013846FFF75DFA85A3D3E9002300
:102B4000FFF7E4F902460B46DDE90C01FFF7CAF98D
:102B500002460B46CDE90C23FFF7D8F9CDE9100169
:102B6000DDE90C0102460B46FFF7A8F90022CDE98A
:102B70001201DDE910017E4BFFF7EEF900227D4BDB
:102B8000FFF79CF902460B46DDE91001FFF7E4F977
:102B90000022794BFFF792F902460B46DDE910015E
:102BA000FFF7DAF9CDE91001DDE90C2300204FF041
:102BB0008041FFF797F902460B46DDE91001FFF768
:102BC0007DF902460B46DDE91201FFF7C5F9002247
:102BD0006A4BFFF773F907F2FF3C00224FEA0C53F0
:102BE000FFF794F902460B46DDE90801CDE90C2315
:102BF000FFF75AFA50B1DDE90C010E9B0022013BB0
:102C00000E935C4BFFF7A8F9CDE90C01DDE90C014F
:102C10000E9B02466333C62B08F002031093149BED
:102C20002DD8002B5FD0042312930A433FF417AF33
:102C3000DDE9080148A3D3E90023FFF75DFA48B1B5
:102C4000DDE9080146A3D3E90023FFF72DFA0028A8
:102C50007FF405AF0A9B002B51D0159A002A00F093
:102C6000AC80013B0A93129B994505D9109B002B20
:102C700000F0AF80022310930023149344E02BBB99
:102C8000B9F1050F4FD908F00203002B49D10523F4
:102C90001293A9F1050314933AE00BF10043CDF828
:102CA00020A009931EE628F4006343F480632046C5
:102CB000CDE92A792C933346DDE908673446294665
:102CC00007F10045CDE928450B9ABBE60523129391
:102CD000ABE70222002310920422149312920E9367
:102CE00023E60527C1E6B9F1040F1FD9109B002B7D
:102CF00077D104231293A9F10403149304E0129BE7
:102D000099455FD80A9B14930E9B002B3FF40DAEA0
:102D1000DDE90801DDE90C23FFF71EF9CDE9080123
:102D200003E60223109305231293F1E70423129381
:102D3000EAE700BFAFF3008061436F63A787D23F2C
:102D400071A379094F930A401655B5BBB16B024088
:102D5000EF39FAFE422EE63F2D431CEBE2361A3FD6
:102D60000000000080842E410000F83F0000E03F9A
:102D700000002C4000002440000018400000F03FFC
:102D8000FB799F501344D33FB3C8608B288AC63F5A
:102D9000149BDDE908A703930A9B07F1004B0293FC
:102DA00028F400630B9A0493294633462046CDE964
:102DB00000ABFFF715FB0246D2E5129B994515D8EB
:102DC0001492A1E7109B23B10A9B14930223109342
:102DD0009AE7129BA9EB0303149395E79B1A5F1ED6
:102DE00043E604231293022310938DE7109B002BDC
:102DF000EFD002231492109386E700BF2DE9F04F25
:102E000091469A4C9A4AB1F1000A9BB018BF83468A
:102E100014601878974ADDF8908008BF9346002820
:102E200000F08A821D460026CDF8209008E0324648
:102E30005146089BD84701362878002800F0C78003
:102E4000252805F10105F2D100222B4613F8011BBC
:102E5000A1F1200010280AD8DFE800F03F09093B63
:102E60000909090909090937093309092F00A1F1DD
:102E70003000092840F289802A2900F0E9800024E6
:102E80002E2900F094800027A1F1680012282CD888
:102E9000DFE810F04E012B0049012B0040012B0010
:102EA0002B002B002B002B002B002B0027002B00CE
:102EB0002B002B002B002B0027001D4642F00102A7
:102EC000C3E71D4642F00202BFE71D4642F004027E
:102ED000BBE71D4642F01002B7E71D4642F008026C
:102EE000B3E7697842F48072013367291D467ED8C2
:102EF000242940F2B880A1F12503422B00F2B380CF
:102F0000DFE813F05101B100B100B100B100B10030
:102F1000B100B100B100B100B100B100B100B10029
:102F2000B100B100B100B100B100B100B100B10019
:102F3000B100B100B100B100B100B100B100B10009
:102F4000B100B1001E013A011E01B100B100B10093
:102F5000B100B100B100B100B100B100B100B100E9
:102F6000B100B100B100B100B100B401B100B100D5
:102F7000B100B100B100B100B100B100B100B401C5
:102F80005801B4011E013A011E01002404EB84041F
:102F900001EB440419781D46A1F130000928A4F181
:102FA000300403F10103F1D92E297FF46CAF697865
:102FB0001846A1F13007092F42F4806240F22581C2
:102FC0002A2900F032811D46002701335CE7344690
:102FD000DDF82090B14501D809F1FF364B46324665
:102FE00051460020D84720461BB0BDE8F08FA1F124
:102FF0006903DBB20F2B36D8012049F2410C98400F
:1030000010EA0C0040F0F4800A2B35D0072B2AD1AF
:1030100058F8041B002940F0108122F0100412F42B
:10302000806144F0210400F00A8112AA082305936C
:103030001023CDE900203246069404970393002321
:10304000029351465846089BFFF7D0F80646F3E630
:1030500058F8044B6978002C1D46BCBF42F00202B0
:10306000644201330CE70846E1E600BFFD2D001085
:10307000982A00204121001058F8049B002F99F84D
:10308000000014BF3B464FF0FF33002800F082835E
:10309000494603EB090C04E011F8013F002B00F056
:1030A00043818C45F8D1ACEB0901530540F12081F7
:1030B000B94228BF394612F0020300F0838202238E
:1030C000CDE9094832468846089C37440B9307E00F
:1030D00023465146D84719F8010F013610B1324640
:1030E000B742F5D10B9B4146099CDDF82880002BA7
:1030F0003FF4A2AE37468C427FF69EAE2644089C33
:10310000761A3A462346514620200137D847B7421F
:10311000F7D191E669786C297FF4E4AEA97842F49E
:103120004072EB1CE1E6697842F400720133DCE6A0
:103130006978682900F0FB8042F080020133D4E610
:10314000672900F0C980472900F0CD80452900F0AB
:10315000CC80CDE9034208F10708029728F0070860
:103160003246F8E802675146CDE900675846089BA9
:10317000FFF782FB06465FE6462908BF42F02002C1
:10318000CDE9034208F10708029728F00708324604
:10319000F8E802675146CDE900675846089BFFF7FB
:1031A0001FF9064648E6324651462520089BD84777
:1031B000013641E608F104039207099306F101077D
:1031C00040F1C3803246514698F80000089BD8472A
:1031D000012C40F2B4812644089C3A4623465146CD
:1031E00020200137D847B742F7D1DDF8248023E605
:1031F0006F2974D040F24182782900F086814FF027
:103200000A0922F010024B4638E0002707EB870737
:1032100001EB4701A1F1300710F8011FA1F13003C4
:10322000092BF3D90546431C2EE658F8047BA978F0
:1032300002356B1C27EAE77726E642F0210412AA42
:10324000944602E020283FF4F1AE01F00F03092B71
:1032500094BF303337330F298CF8003000F1010070
:103260000CF1010C4FEA1111ECD8DFE6582966D0B9
:10327000622940F089804FF002094B4612F4806CBD
:1032800000F0D48022F00D02099212F4007140F097
:103290007B8112F4807008F1040940F038825106F5
:1032A00040F13A8198F80010002940F04A81099ACB
:1032B00022F010020992BCF1000F00F04281084692
:1032C00012AA0999CDE90337CDE905410190002300
:1032D000009202933246A1E042F4006239E74FF0D7
:1032E00008094B46CAE742F4006242F0200230E788
:1032F00012F0020300F08C810223CDE909481F4639
:103300008846089C324623465146D84719F8010F93
:1033100001360028F6D13B464146099CDDF828805D
:10332000002B3FF489ADE5E6A1EB0901BDE6A978E4
:1033300042F0C002EB1CD8E5044606464AE64FF0D0
:10334000100942F020024B4698E7012C40F2F18030
:10335000374606F1FF39CDF82880DDF82080A144FA
:103360003A464346514620200137D8474F45F7D1CA
:10337000DDF828803A4698F800005146089BD84767
:103380002644DDF8248057E512F4806300F0C18004
:103390004FF4806322F0110010F4007E4AD110F443
:1033A000807C08F1040940F03781410600F1A980D2
:1033B000020640F1E381B8F9002082EAE271A1EB54
:1033C000E2711FFA81FED10F0991002A00F05F819E
:1033D000734612AA9646DFF8A0830A9403E0BCF174
:1033E000200F23460FD0A8FB0314E40804EB84014C
:1033F000A3EB41010EF1010E3031092B0CF1010C50
:103400000EF8011CEBD80A9C099B0092CDE901C380
:103410000A233246CDE905400497039351465846A6
:10342000089BFEF7E3FEC846064605E522F00C02BF
:1034300009922AE708F1070828F00708D8F80420BD
:1034400058F808CBD10F5CEA020E6CD0002A634614
:1034500002DA5B4262EB42029146099312AA944659
:103460004FF0000ECDE90A18CDE90C470E960F92E9
:1034700003E0BEF1200F3B4630D04FF0CC3213EBCF
:103480000901BD4F41F10001A7FB014626F00304ED
:1034900004EB9604091B5C1A02FB04F63A4669F138
:1034A000000802FB08660522A4FB077407F0010868
:1034B0002644A8FB024864180A2B0CF1010C4FEAC1
:1034C000570704F1300479F100090EF1010E0CF8F0
:1034D000014C47EAC6774FEA5609CAD27346DDE97E
:1034E0000A18DDE90C470E9E0F9ACDF824E0CDE9CD
:1034F00001310A230092CDE9054032460497039337
:103500009FE598F8002096465DE74FF010094B467E
:10351000B4E622F010003FE711064CBFB8F80010E7
:10352000D8F80010C0E6002B40F04281994609937C
:1035300094E73246514698F80000089BD8473E462B
:1035400053E6099A0A9412F0200F14BF4FF0410875
:103550004FF0610812AA9446A8F10A0802E0202858
:1035600071460FD0B1FBF3FE03FB1E14092C94BF70
:103570003034444499428CF8004000F101000CF1D1
:10358000010CECD20A9C9CE608F1070828F0070819
:10359000D8F8042058F8081B0A920A438E467BD1BB
:1035A000099A22F010020992BCF1000F74D0002099
:1035B00012AA0999CDE90020CDE905413246CDE9AD
:1035C00003373CE58C4298BF01317FF679AD4FF46B
:1035D0008063CDE909949946A2190B97089F541A64
:1035E00032463B46514620200136D847A642F7D105
:1035F000DDE90A474B46DDF8249099F800000028E1
:103600003FF41AAC611C002B3FF477AE002357E562
:103610008C42DED8013170E6D8F80020D10F002AA4
:1036200000F0B38082EAE273A3EBE27312AA94463D
:10363000CDE90914DFF8408103E0BEF1200F2346F5
:103640000FD0A8FB0314E40804EB8401A3EB4101B1
:103650000CF1010C3031092B0EF1010E0CF8011C9C
:10366000EBD8DDE909140A230092CDE90540324682
:10367000CDE901E104970393D0E6692922F0100017
:1036800040F0918012F480633FF486AE80E6002B18
:103690003FF49FAE12AAB7E6099ACDE90B8412F067
:1036A000200F14BF41216121CDE90D76CDE90F3BFB
:1036B000CDF844A00027F0460A9C12AE0DF1480B4D
:1036C000A1F10A0A03E0202F80460C4613D02146C0
:1036D0004A460023404619F0B3F9D2B2092A94BFF2
:1036E00030325244C84574F10004327007F10107CA
:1036F00006F10106E7D23846DDE90B845A460E9EF4
:103700000D9F0F9BDDF844A0DDF840B051E7D8F8DD
:1037100000E0BEF1000F0DD122F010020992BCF1C1
:10372000000F07D012AA0998CDE90337CDE905406B
:103730000191CCE5099A12F0200F14BF41206120BD
:1037400012AA94460A92A0F10A0202E02029C64673
:103750000FD0BEFBF3F803FB18E0092894BF30300C
:1037600080189E458CF8000001F101010CF1010C5C
:10377000ECD20A9AD7E700BFCDCCCCCCD8F8002049
:1037800082EAE27EAEEBE27E1DE6002B3FF44EAF16
:1037900012AA68E712F480610ED012F0020114D070
:1037A00001463746A7E44FF00A0902464B4665E555
:1037B000002312AA09939AE612F002037FF49AAC4E
:1037C000002C7FF406AFFFF737BB002C7FF4FFAE71
:1037D000FFF732BB8C4610B584B0009302901346BD
:1037E00002A94FF0FF320348CDF80CC0FFF706FBEB
:1037F00004B010BDD123001010B5094A84B014687C
:103800004CB1034600914FF0FF3203A90548A04791
:10381000012004B010BD00F07FF9204604B010BDB7
:10382000982A0020C923001000BEFDE708B5FFF765
:10383000FBFF00BF38B5064C064DFEF701FAAC425F
:1038400004D254F8043B9847AC42FAD338BD00BFC9
:10385000B0CA0110BCCA01100368084611461847D7
:1038600070B505460846697D82B000294FD0002A10
:1038700025DD037814460A2B064622D0012C4FF092
:10388000000E0DD03246012312F801CF1946BCF1CB
:103890000A0F03F1010320D09C42F5D1744505DDE8
:1038A0002B68A4EB0E0106EB0E009847311911F8B6
:1038B000013CA3F10D03B3FA83F35B092B7502B04E
:1038C00070BD2B7D002BD9D102212B68134898475E
:1038D000012CEBD04FF0010ED4E712F8010C0D28AB
:1038E000DAD08E4506EB0E00A1EB0E0105DACDE92C
:1038F00000322B689847DDE90032CDE90032022121
:103900002B6806489847009B019A9E46C4E71146DB
:103910002B6802B0BDE87040184700BF08F50110E1
:1039200070B50B680C46802B054682B005D05A1C3A
:10393000234422601D7102B070BD0E4B186878B927
:1039400000230122234422601D7102B070BD226851
:10395000211D0190FFF784FF019800690028EFD036
:103960000368002BF9D0044B1B68002BEFD0834277
:10397000F3D1ECE758260020642600202DE9F0471B
:1039800082B090461C460D460746FDF771FF4FF08A
:10399000FF3C6FF000462E4A821841F10003944527
:1039A00076EB03013CBF624633462A4819F058F8CB
:1039B0006B1C824640D00CB3274E284B1C68B4B118
:1039C000B8F1000F1CD1DFF89C8001E0246974B1CC
:1039D0002368002BFAD0D8F800300BB19C42F5D107
:1039E00020462A463946B0472469002CF0D1BAF166
:1039F000000F26D1284602B0BDE8F087184EDCE75C
:103A00004FF00A09DFF85C8002E02469002CEED058
:103A10002368002BF9D0D8F800300BB1A342F4D1C1
:103A20002A4639462046B047012220460DF10701BB
:103A30008DF80790B047E8E7384618F045FF05468F
:103A4000B9E7044819F000F8284602B0BDE8F0874D
:103A500040420F000013002061380010582600205B
:103A60005938001064260020084A136823B90AE078
:103A700003F110021B6933B18342F9D129B91869E6
:103A800010601961704701B110607047582600201E
:103A900000F0E2BAF0B583B006468DF80700FDF7F6
:103AA000E7FE4FF0FF356FF00044174A821841F1EE
:103AB0000003954274EB03013CBF23462A4613489A
:103AC00018F0CEFF124B07461C689CB1114D01E067
:103AD00024697CB12368002BFAD02B680BB19C427F
:103AE000F6D1204601220DF10701FFF7B9FE246946
:103AF000002CEFD117B9304603B0F0BD034818F0E1
:103B0000A3FF304603B0F0BD40420F000013002079
:103B1000582600206426002038B5044618F0D4FE4C
:103B2000012305461A4620462946FFF727FF084B82
:103B30001C682CB163682BB198472469002CF9D11B
:103B4000284638BD2469002CF4D1284638BD00BF72
:103B5000582600202DE9F041A2B00E460546FDF79B
:103B600087FE4FF0FF3C6FF00044254A821841F178
:103B70000003944574EB03013CBF23466246214891
:103B800018F06EFF0024334607462A461E4801A956
:103B90000194FFF71FFE1D4E019B80463468BBB1A8
:103BA000002C2AD01A4D01E0246974B12368002B3F
:103BB000FAD02B680BB1A342F6D12046019A02A994
:103BC000FFF74EFE2469002CF0D1234634680193A0
:103BD0002CB1636843B198472469002CF9D12FB9FF
:103BE000404622B0BDE8F0812469F1E7054818F0AD
:103BF0002BFF404622B0BDE8F0810194EFE700BF03
:103C000040420F00001300202139001058260020E8
:103C1000642600200FB400B583B004A951F8040B4A
:103C20000191FFF797FF03B05DF804EB04B0704714
:103C3000704700BF0022014B1A7070478FB60220F8
:103C40004B79FF2B0BD1887948B9CB79012B07D160
:103C5000082A05D9034B8A7809201A70704700207A
:103C6000704700BF8FB6022001207047012901D0A4
:103C70000120704708B5104B91881B78994201D0FC
:103C8000002008BD5378012B08D0022BF8D1002169
:103C900064220846FDF7E2FE012008BD5188CB05ED
:103CA00048BF480AC1F3402258BF4FF0FF3001F02F
:103CB0007F01FDF75DFF00BF8FB60220004870470F
:103CC000D4F50110012907D15378012B02D1938833
:103CD000072B03D000207047012070471146A62310
:103CE000014A01F095BA00BF2CF5011003460122EC
:103CF00001481A70704700BF0CF5011008B50B6839
:103D0000B3F5966F00D008BD00224FF0FF3011468A
:103D1000FDF72EFF024A034B10601960704700BF89
:103D2000141C0020181C0020184B70B51A68002ABB
:103D300028D0EFF3108172B6D2E8CF4F0120002CCB
:103D4000FAD1C2E8440F002CF6D1BFF35F8F0022F6
:103D50000F4C186859602270C0E88F2F81F31088CB
:103D6000002400250B4E3078FCF774FE20B90024A7
:103D700000252046294670BD3078FCF77BFE2046A2
:103D8000294670BD4FF47A740025EBE7FC710020E2
:103D900092B6022090B60220014B1878FCF76ABE5A
:103DA00090B6022038B5044600200D4601F06AFBAB
:103DB000A8B3002001F07CFB88B3FDF759FD4FF05C
:103DC000FF3E6FF0004C174A821841F10003964500
:103DD0007CEB03013CBF72466346134818F040FE7B
:103DE000E8B1002001F04EFB58B901464FF0FF301A
:103DF00000F032FD6FF002040B4818F025FE20465B
:103E000038BD002001F054FB0028EED021462A46A0
:103E1000002001F057FB04460028EDD1EAE76FF0DF
:103E20000204ECE740420F0004B5002008B5FDF79E
:103E30001FFD4FF0FF3E6FF0004C0F4A821841F11A
:103E4000000396457CEB03013CBF724663460B487A
:103E500018F006FE70B14FF0FF30002100F0FCFCBE
:103E6000002001F075FB0028F5D1BDE808400348AB
:103E700018F0EABD08BD00BF40420F0004B50020A5
:103E80002DE9F04107460E46FDF7F2FC4FF0FF35F5
:103E90006FF00044324A821841F10003954274EBFE
:103EA00003013CBF2A4623462E4818F0D9FD08B925
:103EB000BDE8F081002001F0E5FA002845D0002E91
:103EC0003EDD0025DFF8A48012E02246002001F04C
:103ED00089FB002105444FF0FF3000F0BDFC0020BD
:103EE00001F036FBFDF7C4FCC8E90001AE4227DD56
:103EF000002001F095FB741B8442A8BF0446791989
:103F0000002CE2D121464FF0FF3000F0A5FC204606
:103F100001F01EFB204601F0B5FA88B1204601F001
:103F20007FFB0028E2D1FDF7A3FC0F4AD8F8003050
:103F30009B18D8F8042042F1000283428A41D5D26E
:103F40000848BDE8F04118F07FBD0020BDE8F04111
:103F50000021064BC3E90001024818F075BD00BFFF
:103F600040420F0004B5002020A107008815002062
:103F700010B5002184B0324818F076FD28BB314BD3
:103F80001A6802B3EFF3108172B6D2E8CFEF5FF098
:103F9000010CBEF1000FF8D1C2E84ECFBEF1000F08
:103FA000F3D1BFF35F8FDFF8A8C0D3F800E09CF82F
:103FB00000205960D3B201228CF80020CEE88F0F88
:103FC00081F31088CBB104B010BD00214FF0FF3059
:103FD00000F042FC002001F06BFA0446184818F08B
:103FE00033FD002CEFD0184B1B68002BEBD0174A89
:103FF000106804B0BDE810401847FDF783FA044686
:10400000FDF736FC4FF0FF3E6FF0004C10F57A7272
:1040100041F1000396457CEB030138BF63464FF046
:1040200000014FF0010C38BF7246DFF828E020464F
:10403000CDE9011CCDF800E0FDF768FA04B010BD31
:1040400004B50020FC710020141C0020181C002066
:1040500092B60220293D00104FF0504330B585B094
:104060001C68FDF74FFAFDF76BFBA04202D0002061
:1040700005B030BD00212C4B08461B7801F0B4FD83
:104080002A480368002B4BD00120FCF7BFFF0346F2
:10409000274C2849C0B22370FCF708FD2078012185
:1040A000FCF7C2FC0E20FCF7F1FC60BB224B6FF06A
:1040B0000044C3E90000FDF725FA0546FDF7D8FBEB
:1040C0004FF0FF3C10F57A7241F10003944574EB18
:1040D000030138BF23464FF000014FF0010438BF01
:1040E0006246DFF860C02846CDE90114CDF800C073
:1040F000FDF70CFA0028BADB01211048FFF7B4FCE9
:10410000012005B030BD0120FCF748FC01460A48FB
:10411000FCF7DEFF00220E200949FCF7FFFCEBE76D
:10412000FCF7BAFFB0E700BFB86D051004B500207A
:1041300090B60220713F0010FC7100208C1200200C
:10414000993D0010293D00100048704770F601109D
:10415000004870471CF6011000B51C4A0346117850
:1041600083B031B363B940F209424FF44173DFF8D1
:1041700060C0ACF802201648ACF8003003B000BDB7
:10418000052B20D8134ADFF848C052F823106046A8
:104190000023013903E0132B20F8022F10D011F86F
:1041A000012F0133DBB2002AF5D15B0043F44073E9
:1041B000E1E701901121104600F02CF8019BD1E7B6
:1041C0004FF44A73D7E70020D8E700BF70B502204C
:1041D000FC25002004F6011000B545F247308BB0F5
:1041E000FDF7BAFC01220346092101A89847DDE941
:1041F0000332034912BA1BBAC1E900230BB000BD58
:10420000F0B400200246024B03CB106051607047AF
:10421000F0B40020012900F0BB80614A0139137815
:104220004FEA231CBCF1090FCCBF0CF1370C0CF189
:10423000300C012980F800C000F0AD8003F00F03BE
:10424000092B8CBF373330330229437000F0A38031
:1042500053784FEA231CBCF1090FCCBF0CF1370C8B
:104260000CF1300C032980F802C000F0948003F0B8
:104270000F03092B8CBF373330330429C37000F090
:104280008A8093784FEA231CBCF1090FCCBF0CF154
:10429000370C0CF1300C052980F804C07BD003F0FA
:1042A0000F03092B8CBF373330330629437172D08B
:1042B000D3784FEA231CBCF1090FCCBF0CF1370CAB
:1042C0000CF1300C072980F806C064D003F00F030E
:1042D000092B8CBF373330330829C3715BD0137976
:1042E0004FEA231CBCF1090FCCBF0CF1370C0CF1C9
:1042F000300C092980F808C04DD003F00F03092BBA
:104300008CBF373330330A29437244D053794FEA94
:10431000231CBCF1090FCCBF0CF1370C0CF1300C95
:104320000B2980F80AC036D003F00F03092B8CBF8D
:10433000373330330C29C3722DD093794FEA231CC5
:10434000BCF1090FCCBF0CF1370C0CF1300C0D296E
:1043500080F80CC01FD003F00F03092B8CBF37333C
:1043600030330E29437316D0D3791A11092ACCBFE2
:10437000373230320F2982730DD003F00F03092B2F
:1043800094BF303337331029C37318BF103002D0B5
:10439000002303707047002308440370704700BF78
:1043A000F0B4002010B500F039F90C231C4CFF22AA
:1043B000A3670E201B49FCF7B1FB402200211A48DD
:1043C00017F06CFF4FF0800C0120174A0023A2F871
:1043D00022C0507010464022144902830287144ABA
:1043E00081604360C2F88430C2F8803080F82130A8
:1043F00080F83B3043620F4BC360C362803B8362F3
:1044000018F016FB4FF0005C4FF4803201200A498F
:104410000A4B2064C4F84CC0C4F89010DA6410BD94
:1044200000001150BD0300206826002084001050B9
:10443000000010500001105010D001000020115059
:1044400001210E20FCF7F0BA00220248114600F0CC
:1044500005B900BF88260020044B197021B14FF424
:104460000032034BC3F89020704700BF87B602208C
:10447000002011500B785B0600D070474B78052B5D
:10448000FBD14B88014ADBB21360F6E70000115004
:10449000CB7803F0030CBCF1010FC3F3010062D031
:1044A0002DE9F041002691F802E0364C0EF07F0233
:1044B00053008988984603EBDE1304EB43134FEA5D
:1044C000DE15D876C1F30A0185F0010083F802E019
:1044D00019835870DE70D300002D32D12A4804337E
:1044E00004EB821E1F18CEF808701E5092B3274BA3
:1044F00003EBC203CEF804303F318909BCF1020F4F
:1045000014BF8B01CB01224908EB05060A6804EBB6
:10451000461613440B601F49F2608B422DD808EBFE
:10452000050304EB4314E17E82F0A04282F4801282
:10453000636842EA816242F0004201201A60BDE8ED
:10454000F081114804EB821E0344CEF8283040F875
:10455000326052B91346104A04EB45140120E26060
:104560006360BDE8F08100207047D20002F1A042F4
:1045700002F58012CEF82420BEE7FDF75BFBF2685F
:10458000CDE700BF682600208000105004001050C6
:10459000DC710020FF0F10500001105018F048BAD5
:1045A00008B59646DFF81CC001F07F02C80900EB91
:1045B00042000CEB40101A46714600F04FF8012003
:1045C00008BD00BF6826002011F07F0205D1002938
:1045D0000CBF02200120064B9866C909054B01EB70
:1045E000420003EB40104FF40062002118F034BA8F
:1045F000002011506826002011F07F0300D1704781
:10460000002205485B0003EBD11300EB43106FF46D
:104610000061C27018F020BA682600204FF0805266
:1046200009480A4908B50A4B02600A609968C943FB
:1046300011F08051FAD14FF48052064817F02EFE47
:104640000922054B5A6708BD002002400030024095
:1046500000000240000010500000115000234FF0F5
:10466000010C10B5016180F81AC08282C382044631
:1046700018F0E2F920B14FF40032074BC3F8902054
:10468000204618F0C9F910B10123237710BD204648
:10469000BDE8104018F0C8B9002011502DE9F041D4
:1046A00000241C4D064623462A78DFF878801A4FEE
:1046B0000DE03B6813EB441323D0DB68304698478A
:1046C0002A780134E4B2511CA142234606DBA242FF
:1046D000A3EB0203EDD808EB4313EEE754220021CD
:1046E0000E4817F0DBFD4FF0FF330C4C2022C4E9DD
:1046F0000133C4E90333FF21BDE8F041084817F056
:10470000CDBD4FF0E023D3F8F03DDB0700D500BE70
:10471000BDE8F08186B60220101600201817002090
:104720002C17002084F60110704700BF704700BFAF
:104730000020704700207047704700BF704700BFDF
:10474000704700BF704700BF024B5878003818BF51
:104750000120704718170020024B1878C0F3800022
:10476000704700BF181700202DE9F047DFF8E480FC
:1047700098F80030FF2B53D100293CD054228A46B0
:1047800081460021284817F089FD0022274C284B3C
:1047900020461A70FCF780FC264B27481C60274CEB
:1047A000FCF788FC204601F017FE254A254B1460D3
:1047B00023B12548FFF79AFA244B18600024224DB4
:1047C00023462A78224F214E0DE0336813EB441321
:1047D00011D05B687BB198472A780134E4B2511C50
:1047E000A142234611DBA242EFD89B1A07EB4313E9
:1047F0005B68002BEFD14FF0E023D3F8F03DDB07EF
:1048000000D500BE0020BDE8F0875146484688F834
:104810000090FFF7C7FD0028EDD04846FFF710FED7
:104820000120BDE8F08700BF1817002010170020F6
:1048300088B602206C170020B8120020A4120020B5
:1048400070170020ED3C001086B6022010160020E4
:1048500084F60110C0120020954B1B78FF2B00F04E
:1048600019812DE9F04F934C934DDFF86082934FFF
:104870008BB026687369EFF3108272B6D3E8CF0F5E
:1048800001210028FAD1C3E8401F0028F6D1BFF368
:104890005F8FB261304607A901F0E4FB0023726923
:1048A000C2E88F3FB36983F31088002800F0CA8004
:1048B0009DF81D30013B072B00F29E83DFE803F0DB
:1048C000A5AF939B8C350A04089B002BD1D0099887
:1048D0009847CEE79DF8201001F07F0605EB4600D3
:1048E00000EBD11090F8343023F0010380F834301D
:1048F00090F8343023F0040380F83430002E00F0B8
:10490000A480037D98F80020934280F091806C4A47
:10491000126812EB431300F08E809E699DF82120EF
:10492000099B9DF81C00B047A3E73B78002B00F0E3
:1049300082803B78013B3B703B7803F0FF00002B0B
:1049400097D1DFF874A19DF81CB09AF8003043F0BD
:1049500001038AF800309AF8343060F300038AF8D3
:1049600034309AF8343060F382038AF834309AF89D
:10497000353060F300038AF835309AF8353060F34B
:1049800082038AF8353000F0A7FC9DF8203003F050
:104990006002602A6CD0402A7DD003F01F03012BF7
:1049A00000F0C380022B00F09380002B60D1202AFE
:1049B00000F00282002A5BD19DF82130092B57D8E4
:1049C000DFE813F0BF01AF015600D1015600A0018E
:1049D000760156006A01F9002B78D9077FF549AFB7
:1049E000FFF7B0FE45E7EB78DA077FF542AF0898AE
:1049F000FFF79CFE3DE72B78D8077FF53AAF287884
:104A0000C0F3C000FFF79CFE33E79DF81C00FFF7E2
:104A100045FE00F057FC9DF82030AB7029E79DF86B
:104A20001C00FFF73BFE00F04DFCFFF787FE20E780
:104A3000501C984211DA4FF0E023D3F8F03DDC0728
:104A400000D500BE0BB0BDE8F08F099B9DF821207A
:104A50009DF81C0000F054FC0BE79B1A194A02EB6E
:104A600043135AE7FFF774FB0246002840F0948195
:104A70004FF0E023D3F8F03DDE0700D500BE9DF8EF
:104A80001C000021FFF7A0FD80219DF81C00FFF70E
:104A90009BFDEEE670470C4800F01EFC01215846D5
:104AA00008AAFFF70FF900287FF4E3AEE7E700BF9D
:104AB000C0120020701700201817002088B60220AE
:104AC0001016002084F60110C53C001086B60220A6
:104AD0009DF8241011F0700FCAD1B44801F07F0383
:104AE00090F800C00AEB430000EBD110007D604558
:104AF0004DD30CF1010E8645C0F27081A0EB0C0085
:104B0000DFF8ACC20CEB40100090002A00F06A8184
:104B1000009E706900F0E0FB01215846736908AA05
:104B2000984700287FF4A5AEA9E79DF824300F2B05
:104B3000A5D89E4A53441B791278934235D3511C11
:104B400099429CDB9A4E9B1A06EB4316706900F063
:104B5000C3FB01215846736908AA984700287FF4CF
:104B600088AE9DF8203013F0600688D19DF8213082
:104B70000A3B012B83D800F0AFFB9DF821300A2BB4
:104B800000F01382584608A900F026FB71E6DFF812
:104B900024C2DCF800C00CEB40100090002A00F0AA
:104BA000218100283FF46BAFB2E7824A166816EB0A
:104BB0004316CBD163E79AF801209DF82230934247
:104BC00000F064819AF80120002A40F0D8818AF828
:104BD0000130002B00F05881013BD8B2FFF7B8FA42
:104BE000002800F074814378022B40F07081C27974
:104BF0009AF80010C2F340131B01C2F3801221F097
:104C0000300143EA42130B438AF80030438800F135
:104C10000901C3180293029B8B4240F2C3814B7877
:104C20000B2B00F0CC810120042B40F0508100229E
:104C3000029B00925B1A1FFA83F95C4B01921B786E
:104C400003901FE05B4B1B6813EB421300F03F81A6
:104C50004A461E69584605910493B0470246009B98
:104C6000082A059903F1010003D99145049B80F0BE
:104C700012814E4BC0B21B7800905A1C904201909A
:104C800000F32581009A01989342A0EB0303D9D841
:104C9000474A02EB4313DBE79AF8013058468DF898
:104CA0001A300DF11A02012308A900F0B1FAE0E56B
:104CB000BDF82200030A5A1EC0B20E2A3FF6DFAE2C
:104CC00001A151F822F000BF014F0010874D0010E4
:104CD0003D4F00107F4A00107F4A00101F4F001008
:104CE000874D00107F4A00107F4A00107F4A001055
:104CF0007F4A00107F4A00107F4A00107F4A001050
:104D0000F34E001008A800F0EDFA58469DF8221066
:104D1000FFF79AFB9AF8003043F002038AF800305C
:104D2000A7E5BDF82230012B7FF4A9AE9AF8003038
:104D3000584623F0080308A98AF8003000F04CFA1E
:104D400097E558469AF800309A0802F00202C3F339
:104D500040131343ADF81A300DF11A02022308A9CB
:104D600000F056FA85E5BDF82230012B7FF487AEBE
:104D70009AF80030584643F0080308A98AF8003032
:104D800000F02AFA75E5022B3FF46CAEFFF7D2FC77
:104D9000024600283FF473AE5846538808A900F035
:104DA00037FA00287FF465AD69E600BF86B60220B9
:104DB00084F60110101600209DF824300F2B3FF6CA
:104DC0005EAE924A53441B79127893421ED2904AA7
:104DD000166816EB43167FF49CAE50E6002A7FF46B
:104DE0004EAE00929DF821C00CF0FD02012A16D0B3
:104DF000BCF1000F7FF43CAE0AEB430303EBD1138D
:104E000093F834305846C3F34003A3E7511C99424A
:104E1000FFF635AE7F4E9B1A06EB431679E6BDF8DA
:104E20002220DAB97C48BCF1010F007800F08E80B6
:104E3000CDE90113FFF7C8FB029B01990AEB43037D
:104E400003EBD11393F8342042F0020283F83420AC
:104E500093F8342042F0010283F83420009B002BA9
:104E60003FF407AD1E46586900F036FA7369012118
:104E700008AA58469847002000F02EFA9AF83530D4
:104E8000DB073FF5F6AC7DE6FFF758FC584608A96E
:104E900000F0A2F9EDE40398012800F0A6800028B4
:104EA00000F09280002391F802E007E0009E8CF869
:104EB00004605FFA83FC604540F286800EEB030CD1
:104EC0005AFA8CFC9CF804600133FF2EEED04FF0B0
:104ED000E023D3F8F03DD90700D500BE4FF0E02322
:104EE000D3F8F03DDA0700D500BE00238AF8013080
:104EF000C5E5FEF7E3FE024600287FF44DAFBEE5B0
:104F0000FFF722F9024600283FF4B2AD58461223BB
:104F100008A900F07DF900287FF4ABACAFE5FFF7FE
:104F200007FC024600283FF4AAAD5846137808A9AA
:104F300000F06EF900287FF49CACA0E5BDF82410C9
:104F4000FFF70AF902460028EFD198E5CDE90232D1
:104F50000191FFF751FB029B01990AEB430303EB1D
:104F6000D11393F83410039A62F3410183F834109B
:104F700093F8341062F3000183F834106EE70021D7
:104F800058460193FFF768FA5846FFF707FB9AF86F
:104F9000022058460092FFF781FB009A019B8AF895
:104FA000022014E6FFF7C8FB70E75846012308A962
:104FB0000DF11A028DF81A6000F02AF959E40B7805
:104FC000C87819444B782FE6009B1448039200914F
:104FD00000F0BCFE0D4B039A00991B781144019A16
:104FE00001339342BFF617AE71E7D3F810C00C4BF4
:104FF0009C4508BF022055E74FF0E023D3F8F03D71
:10500000DB077FF536AC00BE33E400BF86B6022076
:105010001016002084F60110C01200202C1700206A
:10502000295700102DE9F84F0A9F002A40D00C465E
:105030001E4615464FF0000BDFF88090DFF88080A9
:1050400016E0204698F8021099F800A000F04EFEF5
:10505000D0B121465046FFF71BFAE0B1A3780BF11F
:10506000010BDA0920D1AB453B7021D023781C44D9
:105070006378052B0FD1E17801F00301B1420AD129
:10508000A37813F0700FDCD04FF0E023D3F8F03D9D
:10509000DA0700D500BE4FF0E023D3F8F03DDB0780
:1050A00009D40020BDE8F88F0B9AAB451370DDD111
:1050B0000120BDE8F88F00BEF3E700BFC01200205A
:1050C000181700208B7813F0700F08D04FF0E023F2
:1050D000D3F8F03DDA0700D500BE0020704710B5C8
:1050E00082B0084601910C490C4A8978147800F086
:1050F000FDFD48B94FF0E023D3F8F03DDB0700D5C4
:1051000000BE002002B010BD2046019902B0BDE8EB
:105110001040FFF7BDB900BF18170020C0120020D3
:105120000A46064B06481968D309343302F07F0259
:1051300003EB4203184400F08DBD00BF6C17002044
:10514000181700200A46064B06481968D30934335D
:1051500002F07F0203EB4203184400F0ABBD00BF36
:105160006C1700201817002010B5194801F07F04B3
:1051700000EB440000EBD11090F834C01CF0010F9C
:1051800008D04FF0E023D3F8F03DDA0700D500BE99
:10519000002010BD00F1300494F804C00D484CF01C
:1051A000010C007884F804C0FFF7FAF90028F0D168
:1051B0004FF0E021227960F300022271227960F33E
:1051C00082022271D1F8F03DDB07E1D500BEDFE7B6
:1051D00018170020C0120020DFF830C000236246FC
:1051E00010B58E46044608684968CCF80C3003C2F6
:1051F0009EF800102046BDE8104081F0FF011A46DD
:1052000001F08001CCF80830FFF7AEBFD8160020BF
:10521000DFF8ACC070B51546624600248E460646DF
:105220000868496882B003C2CCF80850ACF80E4058
:10523000BEF80620934228BF1346ACF80C308AB162
:1052400033B3DDB19CF90020402B28BF4023002A56
:1052500029DB21463046194AFFF786FF70B101204D
:1052600002B070BD9EF80010134681F0FF01304679
:1052700001F08001FFF778FF0028F0D14FF0E02324
:10528000D3F8F03DDB0700D500BE002002B070BDB2
:105290001A469CF8001001F080013046FFF764FFC9
:1052A0000028DCD1EAE71A4629460448019317F0A2
:1052B00095FA8021014A019BEFE700BF9816002074
:1052C000D81600200022034BC3E90022C3E90222C2
:1052D0001A617047D8160020014B1861704700BF53
:1052E000D81600200146054A4FF0000C134600680E
:1052F0004968C2E902CC03C3704700BFD81600203A
:1053000030B53E4CC90922780546B1EBD21F83B0B7
:1053100017D053B14FF0E023D3F8F03DDB0702D4B0
:10532000002003B030BD00BEFAE72146FFF7A2F827
:1053300023691BB12246032128469847012003B068
:1053400030BD94F90020002A08DBA0680028E7D0CF
:105350001A462B49019317F041FA019BE089A16895
:10536000E288184480B219448242E081A16016D0DC
:105370003F2B14D9A28994F90040131A9BB2402BF9
:1053800028BF4023002C28DB90424FF0000132D090
:105390001B4A2846FFF7E8FE0028CFD1BAE7236969
:1053A00023B102212846154A984768B10023217885
:1053B000284681F0FF011A4601F08001FFF7D4FE74
:1053C0000028A7D00120BAE701462846FFF7FCF8DD
:1053D00080212846FFF7F8F8B0E7904208D01A4637
:1053E0000748019317F0FAF98021054A019BD0E79D
:1053F00080210022CDE70A46CBE700BFD816002067
:105400009816002070B582B00446FFF79DF908B9E0
:1054100002B070BDFFF7A0F902460028F8D1C823FA
:1054200004FB03F315492546CC18E0780028EFD09B
:1054300010335E183046019200F002FE3F28E7D993
:10544000E1780198FFF76CFE0028E1D0304600F0CB
:10545000F7FD3F28E1780AD94023DFF824C00198FE
:105460000CEBC51202B0BDE87040FFF77DBE01989D
:1054700002B0BDE87040FFF765BE00BF0813002012
:105480001416002010B50446FFF75EF908B9002095
:1054900010BDFFF761F90028F9D1C822034B02FBC8
:1054A0000433187900F0010010BD00BF081300207C
:1054B000C82208B5024B02FB003000F0A7FD08BD72
:1054C000181300204FF6FF732DE9F041C8249A42CB
:1054D00028BF1A4600FB04F41B4D04F1100382B0F0
:1054E000804692B258195F1900F00AFE0646FFF78F
:1054F0002BF918B9304602B0BDE8F081FFF72CF95E
:105500000028F7D12544EA78002AF3D001903846E4
:1055100000F096FD3F28EDD90198E978FFF700FEED
:105520000028E7D0384600F08BFD3F28E97807D9FE
:10553000064A4023019802EBC812FFF715FED9E78F
:105540000198FFF7FFFDD5E708130020141600208F
:10555000F0B583B00546FFF7F7F810B9002003B0A7
:10556000F0BDFFF7F9F804460028F7D1C82305FB82
:1055700003F31A4A03F124018F183846009300F010
:1055800045FD0028EAD0154A009B2046D618B17880
:10559000FFF7C6FD0028E1D01149384601EBC511DF
:1055A0004022009100F0ACFD96F802C0034670B1B5
:1055B000019061462046009AFFF7D6FD58B94FF09A
:1055C000E023D3F8F03DDB07C8D500BEC6E761464F
:1055D000FFF7B8FDC2E70198C1E700BF081300203C
:1055E0005416002070B505464FF6FF70C82382425E
:1055F00028BF0246094C92B203FB0544204600F046
:1056000043FE0646204600F001FD3F2801D8304603
:1056100070BD2846FFF79CFF304670BD2C1300205C
:10562000C82208B5024B02FB003000F009FD08BD9E
:105630002C13002070B5002482B0C8220021184825
:1056400016F02CFEFF234FF4E131082215480470B8
:1056500013480094064643718160827300F138015B
:1056600001234022103000F0A1FC0123402206F16A
:105670007801009306F1B80506F1240000F096FCCD
:105680002846FBF709FD06F1C000FBF705FD06F112
:10569000C000C6E90745C6E90C0402B070BD00BFF2
:1056A00008130020941600200A4B196B1A6A61B186
:1056B0003AB10022C3E90C22DA6100221A62012009
:1056C00070470120C3E90C227047002AF7D0D96146
:1056D000F3E700BF081300200022104908B5104866
:1056E0000B7802600271DA0707D59B070CD5BDE87D
:1056F000084001210B4800F08BBE103000F06CFE1A
:1057000006490B789B07F2D4064800F065FEBDE819
:1057100008400121034800F07BBE00BF9416002022
:10572000081300202C13002070B54B7984B0022B95
:1057300002D18B79022B03D00024204604B070BD27
:105740002B4B9B783BB14FF0E023D3F8F03DDB07C8
:10575000F2D500BEF0E78B780546254803700B783C
:10576000194491F801C0BCF1240F08BF092409D0E5
:105770003BE00B78194491F801C02344BCF1240F9D
:105780009CB207D19442F4D90020FFF73BFE20469B
:1057900004B070BD6346BCF1050F16D0042BF3D1E5
:1057A0004B790A2BF0D1134B0A7801930133009304
:1057B00002231646114428461A46FFF733FC0028F8
:1057C000C1D00E3433199CB2DEE728460391FFF7AF
:1057D00079FC03990028B6D08B78054A53700B7872
:1057E0001A1919444B7894B2D8E763460924D2E7D2
:1057F000081300200A130020137803F06003202B05
:105800000BD100B5DFF8BCC093889CF800E083B0F2
:105810009E4504D0002003B000BD0020704753789F
:10582000203B032BF6D8DFE803F02C270D020129DB
:1058300033D0032922D11E4B03B300205188AFF38C
:1058400000801BE0012928D0032917D1528819486C
:1058500002F0010383F0010101938CF8042000920F
:1058600000F0D6FD144949B1009A00200199C2F315
:105870004002AFF3008001E0012912D0012003B003
:1058800000BD01290DD00329F8D10C4B002BF5D018
:1058900000200B49FEF732FAF0E71146FFF79CFCB7
:1058A000ECE711460723064AFFF7B2FCE6E700BF24
:1058B000000000002C13002000000000FD3C001040
:1058C00010130020081300202DE9F041354C0D463F
:1058D000E27807468A421E4682B02FD0A3788B42D8
:1058E00009D04FF0E023D3F8F03DDB0724D40020AB
:1058F00002B0BDE8F0812C4B13B10020AFF3008063
:105900000020FFF725FE002847D1284800F07EFB45
:10591000002842D1002E40D016F03F053DD1384638
:10592000A178FFF7FDFB002837D02B462A463846E2
:10593000A178FFF719FC30E000BED8E79AB21C4905
:1059400004F1100000F0A0FC1A4BD3B16279FF2AD9
:1059500017D0B6B1164B03EB060802E0434510D052
:10596000627913F8011B9142F8D11348019300F0BA
:105970005DFB019B0028F1D16179AFF30080019BB1
:10598000ECE70E4B1BB10C4800F050FB38B1002087
:10599000FFF738FDA378AB42ADD00120A8E7AFF305
:1059A0000080F4E708130020000000002C13002002
:1059B0001416002000000000181300200000000052
:1059C000F0B54FF4137285B00021124816F066FC52
:1059D000402600234FF480750E4F0F4C07F5A6723A
:1059E0001946CDE90246009201951A4607F59470D2
:1059F00000F0D6F9002307F1280134440091012278
:105A00001946CDE902460195381D00F0C9F905B0E7
:105A1000F0BD00BFC01800204018002008B50448A1
:105A200000F0EAF9034800F0E7F9012008BD00BFE3
:105A3000E8190020C418002038B50025064C04F5EC
:105A40009870257000F0C8FC04F10C0000F0C4FC54
:105A500084F82951657138BDC01800202DE9F8433C
:105A60004B79FF2B05D1354F7E7997F829311E43AD
:105A700002D00020BDE8F8838B780C783B700B795E
:105A8000814688460C44002B34D0A51803E0AC4274
:105A900030D223781C446378052BF8D1AC4229D24C
:105AA00021464846FFF70EFB00283ED0A378DB09CD
:105AB00025D1234800F090FCA37897F8282187F897
:105AC0002931A3884846C3F30A03A3F50073B3FA48
:105AD00083F35B0963F341021A4987F8282100F038
